{
  "contractName": "Bbpki",
  "abi": [
    {
      "inputs": [],
      "payable": false,
      "stateMutability": "nonpayable",
      "type": "constructor"
    },
    {
      "anonymous": false,
      "inputs": [
        {
          "indexed": false,
          "internalType": "uint256",
          "name": "noOfCA",
          "type": "uint256"
        },
        {
          "indexed": false,
          "internalType": "string",
          "name": "_name",
          "type": "string"
        }
      ],
      "name": "caRegistered",
      "type": "event"
    },
    {
      "anonymous": false,
      "inputs": [
        {
          "indexed": false,
          "internalType": "uint256",
          "name": "serialNumber",
          "type": "uint256"
        },
        {
          "indexed": false,
          "internalType": "string",
          "name": "subjectName",
          "type": "string"
        },
        {
          "indexed": false,
          "internalType": "string",
          "name": "issuer",
          "type": "string"
        },
        {
          "indexed": false,
          "internalType": "enum Bbpki.certificateStatus",
          "name": "Status",
          "type": "uint8"
        },
        {
          "indexed": false,
          "internalType": "string[]",
          "name": "signatures",
          "type": "string[]"
        }
      ],
      "name": "certificateSigned",
      "type": "event"
    },
    {
      "anonymous": false,
      "inputs": [
        {
          "indexed": false,
          "internalType": "uint256",
          "name": "notBefore",
          "type": "uint256"
        },
        {
          "indexed": false,
          "internalType": "uint256",
          "name": "notAfter",
          "type": "uint256"
        },
        {
          "indexed": false,
          "internalType": "uint256",
          "name": "blockNumber",
          "type": "uint256"
        }
      ],
      "name": "header",
      "type": "event"
    },
    {
      "constant": true,
      "inputs": [
        {
          "internalType": "uint256",
          "name": "",
          "type": "uint256"
        }
      ],
      "name": "certificateAuthorities",
      "outputs": [
        {
          "internalType": "uint256",
          "name": "id",
          "type": "uint256"
        },
        {
          "internalType": "string",
          "name": "nameCA",
          "type": "string"
        }
      ],
      "payable": false,
      "stateMutability": "view",
      "type": "function"
    },
    {
      "constant": true,
      "inputs": [
        {
          "internalType": "uint256",
          "name": "",
          "type": "uint256"
        }
      ],
      "name": "certificates",
      "outputs": [
        {
          "internalType": "uint256",
          "name": "serialNumber",
          "type": "uint256"
        },
        {
          "internalType": "string",
          "name": "subjectName",
          "type": "string"
        },
        {
          "internalType": "string",
          "name": "issuer",
          "type": "string"
        },
        {
          "internalType": "uint256",
          "name": "notBefore",
          "type": "uint256"
        },
        {
          "internalType": "uint256",
          "name": "notAfter",
          "type": "uint256"
        },
        {
          "internalType": "enum Bbpki.certificateStatus",
          "name": "Status",
          "type": "uint8"
        },
        {
          "internalType": "uint256",
          "name": "blockNumber",
          "type": "uint256"
        }
      ],
      "payable": false,
      "stateMutability": "view",
      "type": "function"
    },
    {
      "constant": true,
      "inputs": [],
      "name": "noOfCA",
      "outputs": [
        {
          "internalType": "uint256",
          "name": "",
          "type": "uint256"
        }
      ],
      "payable": false,
      "stateMutability": "view",
      "type": "function"
    },
    {
      "constant": true,
      "inputs": [],
      "name": "noOfcertificates",
      "outputs": [
        {
          "internalType": "uint256",
          "name": "",
          "type": "uint256"
        }
      ],
      "payable": false,
      "stateMutability": "view",
      "type": "function"
    },
    {
      "constant": false,
      "inputs": [
        {
          "internalType": "string",
          "name": "_name",
          "type": "string"
        }
      ],
      "name": "registerCA",
      "outputs": [],
      "payable": false,
      "stateMutability": "nonpayable",
      "type": "function"
    },
    {
      "constant": false,
      "inputs": [
        {
          "internalType": "string",
          "name": "subjectName",
          "type": "string"
        }
      ],
      "name": "signCertificate",
      "outputs": [
        {
          "internalType": "uint256",
          "name": "serialNumber",
          "type": "uint256"
        },
        {
          "internalType": "string",
          "name": "",
          "type": "string"
        },
        {
          "internalType": "string",
          "name": "issuer",
          "type": "string"
        },
        {
          "internalType": "enum Bbpki.certificateStatus",
          "name": "",
          "type": "uint8"
        },
        {
          "internalType": "string[]",
          "name": "",
          "type": "string[]"
        }
      ],
      "payable": false,
      "stateMutability": "nonpayable",
      "type": "function"
    },
    {
      "constant": false,
      "inputs": [
        {
          "internalType": "uint256",
          "name": "serialNumber",
          "type": "uint256"
        }
      ],
      "name": "revokeCertificate",
      "outputs": [
        {
          "internalType": "string",
          "name": "",
          "type": "string"
        }
      ],
      "payable": false,
      "stateMutability": "nonpayable",
      "type": "function"
    },
    {
      "constant": true,
      "inputs": [
        {
          "internalType": "uint256",
          "name": "serialNumber",
          "type": "uint256"
        }
      ],
      "name": "clientVerifyCert",
      "outputs": [
        {
          "internalType": "uint256",
          "name": "",
          "type": "uint256"
        }
      ],
      "payable": false,
      "stateMutability": "view",
      "type": "function"
    },
    {
      "constant": true,
      "inputs": [],
      "name": "countCertificates",
      "outputs": [
        {
          "internalType": "uint256",
          "name": "",
          "type": "uint256"
        }
      ],
      "payable": false,
      "stateMutability": "view",
      "type": "function"
    }
  ],
  "bytecode": "0x60806040526000600355600060045534801561001a57600080fd5b50336000806101000a81548173ffffffffffffffffffffffffffffffffffffffff021916908373ffffffffffffffffffffffffffffffffffffffff1602179055506114528061006a6000396000f3fe608060405234801561001057600080fd5b50600436106100935760003560e01c8063663b3e2211610066578063663b3e22146101385780638d4224d51461016e578063b89e87a21461019f578063d16a5866146101bb578063f3a25564146101eb57610093565b806306f5497e1461009857806332732bf2146100c85780633d21c1d8146100e6578063508254c214610104575b600080fd5b6100b260048036036100ad9190810190610ce3565b610209565b6040516100bf9190610fcf565b60405180910390f35b6100d0610286565b6040516100dd9190610ff1565b60405180910390f35b6100ee61028c565b6040516100fb9190610ff1565b60405180910390f35b61011e60048036036101199190810190610ca2565b610296565b60405161012f95949392919061106c565b60405180910390f35b610152600480360361014d9190810190610ce3565b6106b3565b604051610165979695949392919061113c565b60405180910390f35b61018860048036036101839190810190610ce3565b610832565b60405161019692919061100c565b60405180910390f35b6101b960048036036101b49190810190610ca2565b6108ee565b005b6101d560048036036101d09190810190610ce3565b6109b5565b6040516101e29190610ff1565b60405180910390f35b6101f36109d5565b6040516102009190610ff1565b60405180910390f35b6060600060019050806001600085815260200190815260200160002060050160006101000a81548160ff0219169083600281111561024357fe5b02179055506040518060400160405280600781526020017f7265766f6b656400000000000000000000000000000000000000000000000000815250915050919050565b60035481565b6000600354905090565b600060608060006060600842816102a957fe5b0494506003600081548092919060010191905055506000600942336040516020016102d5929190610fa3565b6040516020818303038152906040528051906020012060001c816102f557fe5b0690506003811015610308576003810190505b6000600190505b818110156103985760016000888152602001908152602001600020600601600260008381526020019081526020016000206001019080600181540180825580915050906001820390600052602060002001600090919290919091509080546001816001161561010002031660029004610389929190610a8d565b5050808060010191505061030f565b5060008142336040516020016103af929190610fa3565b6040516020818303038152906040528051906020012060001c816103cf57fe5b06905060018110156103e2576001810190505b600260008281526020019081526020016000206001018054600181600116156101000203166002900480601f01602080910402602001604051908101604052809291908181526020018280546001816001161561010002031660029004801561048c5780601f106104615761010080835404028352916020019161048c565b820191906000526020600020905b81548152906001019060200180831161046f57829003601f168201915b50505050509450600080905087600160008a81526020019081526020016000206000018190555088600160008a815260200190815260200160002060010190805190602001906104dd929190610b14565b5085600160008a81526020019081526020016000206002019080519060200190610508929190610b14565b5080600160008a815260200190815260200160002060050160006101000a81548160ff0219169083600281111561053b57fe5b0217905550610549886109db565b5050507f0b6e0200a09936986a2eff29f3c2f67c02fefd99dcf1037d6b864e840cbb0184888a8884600160008e81526020019081526020016000206006016040516105989594939291906110d4565b60405180910390a187898783600160008d815260200190815260200160002060060180805480602002602001604051908101604052809291908181526020016000905b82821015610697578382906000526020600020018054600181600116156101000203166002900480601f0160208091040260200160405190810160405280929190818152602001828054600181600116156101000203166002900480156106835780601f1061065857610100808354040283529160200191610683565b820191906000526020600020905b81548152906001019060200180831161066657829003601f168201915b5050505050815260200190600101906105db565b5050505090509750975097509750975050505091939590929450565b6001602052806000526040600020600091509050806000015490806001018054600181600116156101000203166002900480601f0160208091040260200160405190810160405280929190818152602001828054600181600116156101000203166002900480156107655780601f1061073a57610100808354040283529160200191610765565b820191906000526020600020905b81548152906001019060200180831161074857829003601f168201915b505050505090806002018054600181600116156101000203166002900480601f0160208091040260200160405190810160405280929190818152602001828054600181600116156101000203166002900480156108035780601f106107d857610100808354040283529160200191610803565b820191906000526020600020905b8154815290600101906020018083116107e657829003601f168201915b5050505050908060030154908060040154908060050160009054906101000a900460ff16908060070154905087565b6002602052806000526040600020600091509050806000015490806001018054600181600116156101000203166002900480601f0160208091040260200160405190810160405280929190818152602001828054600181600116156101000203166002900480156108e45780601f106108b9576101008083540402835291602001916108e4565b820191906000526020600020905b8154815290600101906020018083116108c757829003601f168201915b5050505050905082565b60008151116108fc57600080fd5b600a6004541061090b57600080fd5b60046000815480929190600101919050555060006004549050604051806040016040528060045481526020018381525060026000838152602001908152602001600020600082015181600001556020820151816001019080519060200190610974929190610b94565b509050507f8b8c518d40c58dbc6656c560f0866634c71fd1c47732e5acadbc36589fa55d7c81836040516109a992919061103c565b60405180910390a15050565b600060016000838152602001908152602001600020600701549050919050565b60045481565b60008060008042905060006301e13380420190508160016000888152602001908152602001600020600301819055508060016000888152602001908152602001600020600401819055504360016000888152602001908152602001600020600701819055507fb4a33d3a12437d8ac3842fbd5b5553f799fd7985684aa30ca03a181d03caf30b828243604051610a73939291906111b9565b60405180910390a181814394509450945050509193909250565b828054600181600116156101000203166002900490600052602060002090601f016020900481019282601f10610ac65780548555610b03565b82800160010185558215610b0357600052602060002091601f016020900482015b82811115610b02578254825591600101919060010190610ae7565b5b509050610b109190610c14565b5090565b828054600181600116156101000203166002900490600052602060002090601f016020900481019282601f10610b5557805160ff1916838001178555610b83565b82800160010185558215610b83579182015b82811115610b82578251825591602001919060010190610b67565b5b509050610b909190610c14565b5090565b828054600181600116156101000203166002900490600052602060002090601f016020900481019282601f10610bd557805160ff1916838001178555610c03565b82800160010185558215610c03579182015b82811115610c02578251825591602001919060010190610be7565b5b509050610c109190610c14565b5090565b610c3691905b80821115610c32576000816000905550600101610c1a565b5090565b90565b600082601f830112610c4a57600080fd5b8135610c5d610c588261121d565b6111f0565b91508082526020830160208301858383011115610c7957600080fd5b610c8483828461135d565b50505092915050565b600081359050610c9c816113f8565b92915050565b600060208284031215610cb457600080fd5b600082013567ffffffffffffffff811115610cce57600080fd5b610cda84828501610c39565b91505092915050565b600060208284031215610cf557600080fd5b6000610d0384828501610c8d565b91505092915050565b6000610d188383610e7c565b905092915050565b6000610d2c8383610eee565b905092915050565b610d45610d40826112fc565b61139f565b82525050565b6000610d5682611283565b610d6081856112c9565b935083602082028501610d7285611249565b8060005b85811015610dae5784840389528151610d8f8582610d0c565b9450610d9a836112af565b925060208a01995050600181019050610d76565b50829750879550505050505092915050565b6000610dcb8261128e565b610dd581856112c9565b935083602082028501610de785611259565b8060005b85811015610e2257848403895281610e038582610d20565b9450610e0e836112bc565b925060208a01995050600181019050610deb565b50829750879550505050505092915050565b610e3d8161134b565b82525050565b6000610e4e826112a4565b610e5881856112eb565b9350610e6881856020860161136c565b610e71816113cd565b840191505092915050565b6000610e8782611299565b610e9181856112da565b9350610ea181856020860161136c565b610eaa816113cd565b840191505092915050565b6000610ec082611299565b610eca81856112eb565b9350610eda81856020860161136c565b610ee3816113cd565b840191505092915050565b600081546001811660008114610f0b5760018114610f3157610f75565b607f6002830416610f1c81876112da565b955060ff198316865260208601935050610f75565b60028204610f3f81876112da565b9550610f4a8561126e565b60005b82811015610f6c57815481890152600182019150602081019050610f4d565b80880195505050505b505092915050565b610f8681611341565b82525050565b610f9d610f9882611341565b6113c3565b82525050565b6000610faf8285610f8c565b602082019150610fbf8284610d34565b6014820191508190509392505050565b60006020820190508181036000830152610fe98184610e43565b905092915050565b60006020820190506110066000830184610f7d565b92915050565b60006040820190506110216000830185610f7d565b81810360208301526110338184610eb5565b90509392505050565b60006040820190506110516000830185610f7d565b81810360208301526110638184610e43565b90509392505050565b600060a0820190506110816000830188610f7d565b81810360208301526110938187610e43565b905081810360408301526110a78186610e43565b90506110b66060830185610e34565b81810360808301526110c88184610d4b565b90509695505050505050565b600060a0820190506110e96000830188610f7d565b81810360208301526110fb8187610e43565b9050818103604083015261110f8186610e43565b905061111e6060830185610e34565b81810360808301526111308184610dc0565b90509695505050505050565b600060e082019050611151600083018a610f7d565b81810360208301526111638189610eb5565b905081810360408301526111778188610eb5565b90506111866060830187610f7d565b6111936080830186610f7d565b6111a060a0830185610e34565b6111ad60c0830184610f7d565b98975050505050505050565b60006060820190506111ce6000830186610f7d565b6111db6020830185610f7d565b6111e86040830184610f7d565b949350505050565b6000604051905081810181811067ffffffffffffffff8211171561121357600080fd5b8060405250919050565b600067ffffffffffffffff82111561123457600080fd5b601f19601f8301169050602081019050919050565b6000819050602082019050919050565b60008190508160005260206000209050919050565b60008190508160005260206000209050919050565b600081519050919050565b600081549050919050565b600081519050919050565b600081519050919050565b6000602082019050919050565b6000600182019050919050565b600082825260208201905092915050565b600082825260208201905092915050565b600082825260208201905092915050565b600061130782611321565b9050919050565b600081905061131c826113eb565b919050565b600073ffffffffffffffffffffffffffffffffffffffff82169050919050565b6000819050919050565b60006113568261130e565b9050919050565b82818337600083830152505050565b60005b8381101561138a57808201518184015260208101905061136f565b83811115611399576000848401525b50505050565b60006113aa826113b1565b9050919050565b60006113bc826113de565b9050919050565b6000819050919050565b6000601f19601f8301169050919050565b60008160601b9050919050565b600381106113f557fe5b50565b61140181611341565b811461140c57600080fd5b5056fea365627a7a72315820185a0b32642142c13213eb7c4498a62194d130e0d4b295b90b6bd1451448d6db6c6578706572696d656e74616cf564736f6c63430005100040",
  "source": "// SPDX-License-Identifier: GPL-3.0\r\npragma solidity ^0.5.16;\r\npragma experimental ABIEncoderV2;\r\n\r\ncontract Bbpki {\r\n\r\n// state variables\r\n\r\naddress owner;\r\nmapping (uint => certificate) public certificates;\r\nmapping (uint => certificateAuthority) public certificateAuthorities;\r\nuint256 public noOfcertificates = 0;\r\nuint256 public noOfCA = 0;\r\n\r\n// constructor\r\nconstructor () public {\r\nowner = msg.sender;\r\n}\r\n\r\n // enumerations (predetermined values)\r\n    enum certificateStatus {active, revoked, expired}\r\n\r\n// access restrictions\r\nmodifier onlyOwner (){\r\nrequire (owner == msg.sender);\r\n    _;\r\n}\r\n\r\n\r\n\r\n// structures\r\n\r\n    struct certificate {\r\n        uint256 serialNumber;\r\n        string subjectName;\r\n        string issuer;\r\n        uint notBefore;\r\n        uint notAfter;\r\n        certificateStatus Status;\r\n        string[] signatures;\r\n        uint256 blockNumber;\r\n    }\r\n\r\n    struct certificateAuthority {\r\n    uint id;\r\n    string nameCA;\r\n    }\r\n\r\n   \r\n\r\n    // events\r\n    // certificate authority registeration event\r\n    event caRegistered (uint noOfCA, string _name );\r\n    event header (uint notBefore, uint notAfter, uint blockNumber);\r\n\r\n    // certificate signing event\r\n    event certificateSigned(\r\n    uint256 serialNumber,\r\n    string  subjectName,\r\n     string  issuer,\r\n     certificateStatus Status,\r\n     string[] signatures\r\n      );\r\n\r\n    // functions \r\n    function registerCA (string memory _name) public {\r\n        require ((bytes(_name).length > 0));\r\n        require(noOfCA < 10);\r\n        noOfCA++;\r\n        uint256 CA_Id = noOfCA;\r\n        certificateAuthorities[CA_Id] = certificateAuthority(noOfCA, _name);\r\n        emit caRegistered (CA_Id, _name);\r\n    }\r\n\r\n\r\n    function signCertificate(string memory subjectName) public returns (\r\n     uint256 serialNumber,\r\n     string memory,\r\n     string memory issuer,\r\n     certificateStatus,\r\n     string[] memory\r\n     \r\n\r\n     ) {\r\n    serialNumber = block.timestamp/8;\r\n    noOfcertificates++;\r\n\r\n    // generate a random number between 3 and 10 inclusive to determine the number of CA to sign the certificate automatically\r\n    uint caRequired = uint(keccak256(abi.encodePacked(block.timestamp, msg.sender))) % 9;\r\n    if (caRequired <3){\r\n        caRequired = caRequired + 3;\r\n        }\r\n        \r\n    for (uint i = 1; i < caRequired; i++)\r\n    {\r\n    certificates[serialNumber].signatures.push(certificateAuthorities[i].nameCA);\r\n    }\r\n  \r\n    // generate a random number between 1 and \"caRequired\" to select the issuer of the certificate\r\n    uint cIssuer = uint(keccak256(abi.encodePacked(block.timestamp, msg.sender))) % caRequired;\r\n    if (cIssuer < 1){\r\n        cIssuer = cIssuer + 1;\r\n        }\r\n    issuer = certificateAuthorities[cIssuer].nameCA;\r\n   \r\n //   (uint year,uint month,uint day) = BokkyPooBahsDateTimeLibrary.timestampToDate(a);\r\n    \r\n certificateStatus Status = certificateStatus.active;\r\ncertificates[serialNumber].serialNumber = serialNumber;\r\ncertificates[serialNumber].subjectName = subjectName;\r\ncertificates[serialNumber].issuer = issuer;\r\ncertificates[serialNumber].Status = Status;\r\naddblockandexpiry(serialNumber);\r\n\r\n\r\n  //  certificates[noOfcertificates] = certificate(serialNumber, subjectName, organisation, issuer, expiry, noOfSignatures,defaultStatus,signatures);\r\n     emit certificateSigned(serialNumber, subjectName, issuer, Status,certificates[serialNumber].signatures);\r\n     return (serialNumber, subjectName, issuer, Status,certificates[serialNumber].signatures);\r\n    }\r\n\r\n    function revokeCertificate (uint256 serialNumber) public returns (string memory){\r\n     certificateStatus status = certificateStatus.revoked;\r\n     certificates[serialNumber].Status = status;\r\n    return \"revoked\";\r\n    }\r\n    \r\n    function clientVerifyCert(uint serialNumber) public view returns (uint){\r\n        return certificates[serialNumber].blockNumber;\r\n    }\r\n\r\n    function countCertificates() view public returns (uint){ //Count how many users create certificates\r\n      return noOfcertificates;\r\n    }\r\n    \r\n    function addblockandexpiry (uint256 serialNumber) private returns (uint256, uint256, uint256) {\r\n        uint256 notBefore = block.timestamp;\r\n        uint256 notAfter = block.timestamp + (365*24*60*60);\r\n        certificates[serialNumber].notBefore = notBefore;\r\n        certificates[serialNumber].notAfter = notAfter;\r\n        certificates[serialNumber].blockNumber = block.number;\r\n        emit header(notBefore, notAfter, block.number);\r\n        return (notBefore, notAfter, block.number);\r\n        \r\n    }\r\n}\r\n",
  "sourcePath": "C:/Users/USER/Desktop/BB-PKI-CERTIFICATE-MANAGEMENT/contracts/BBPKI.sol",
  "compiler": {
    "name": "solc",
    "version": "0.5.16+commit.9c3226ce.Emscripten.clang"
  },
  "schemaVersion": "3.3.4",
  "updatedAt": "2021-04-01T21:01:04.975Z",
  "networkType": "ethereum",
  "devdoc": {
    "methods": {}
  },
  "userdoc": {
    "methods": {}
  }
}