{
  "contractName": "Bbpki",
  "abi": [
    {
      "inputs": [],
      "payable": false,
      "stateMutability": "nonpayable",
      "type": "constructor"
    },
    {
      "anonymous": false,
      "inputs": [
        {
          "indexed": false,
          "internalType": "string",
          "name": "issuer",
          "type": "string"
        },
        {
          "indexed": false,
          "internalType": "string[]",
          "name": "Multisignatures",
          "type": "string[]"
        },
        {
          "indexed": false,
          "internalType": "string",
          "name": "certificateSignature",
          "type": "string"
        },
        {
          "indexed": false,
          "internalType": "bool",
          "name": "certificateStatus",
          "type": "bool"
        },
        {
          "indexed": false,
          "internalType": "uint256",
          "name": "validity",
          "type": "uint256"
        }
      ],
      "name": "addcertpropss",
      "type": "event"
    },
    {
      "anonymous": false,
      "inputs": [
        {
          "indexed": false,
          "internalType": "string",
          "name": "version",
          "type": "string"
        },
        {
          "indexed": false,
          "internalType": "uint256",
          "name": "serialNumber",
          "type": "uint256"
        },
        {
          "indexed": false,
          "internalType": "string",
          "name": "subjectName",
          "type": "string"
        },
        {
          "indexed": false,
          "internalType": "string",
          "name": "publicKey",
          "type": "string"
        },
        {
          "indexed": false,
          "internalType": "uint256",
          "name": "blockNumber",
          "type": "uint256"
        }
      ],
      "name": "certificateSigned",
      "type": "event"
    },
    {
      "anonymous": false,
      "inputs": [
        {
          "indexed": false,
          "internalType": "uint256",
          "name": "notBefore",
          "type": "uint256"
        },
        {
          "indexed": false,
          "internalType": "uint256",
          "name": "notAfter",
          "type": "uint256"
        },
        {
          "indexed": false,
          "internalType": "uint256",
          "name": "blockNumber",
          "type": "uint256"
        }
      ],
      "name": "header",
      "type": "event"
    },
    {
      "constant": true,
      "inputs": [
        {
          "internalType": "uint256",
          "name": "",
          "type": "uint256"
        }
      ],
      "name": "certificates",
      "outputs": [
        {
          "internalType": "string",
          "name": "version",
          "type": "string"
        },
        {
          "internalType": "uint256",
          "name": "serialNumber",
          "type": "uint256"
        },
        {
          "internalType": "string",
          "name": "subjectName",
          "type": "string"
        },
        {
          "internalType": "string",
          "name": "publicKey",
          "type": "string"
        },
        {
          "internalType": "uint256",
          "name": "validity",
          "type": "uint256"
        },
        {
          "internalType": "string",
          "name": "issuer",
          "type": "string"
        },
        {
          "internalType": "string",
          "name": "certificateSignature",
          "type": "string"
        },
        {
          "internalType": "bool",
          "name": "certificateStatus",
          "type": "bool"
        },
        {
          "internalType": "uint256",
          "name": "blockNumber",
          "type": "uint256"
        }
      ],
      "payable": false,
      "stateMutability": "view",
      "type": "function"
    },
    {
      "constant": true,
      "inputs": [],
      "name": "noOfcertificates",
      "outputs": [
        {
          "internalType": "uint256",
          "name": "",
          "type": "uint256"
        }
      ],
      "payable": false,
      "stateMutability": "view",
      "type": "function"
    },
    {
      "constant": false,
      "inputs": [
        {
          "internalType": "string",
          "name": "_version",
          "type": "string"
        },
        {
          "internalType": "uint256",
          "name": "_serialNumber",
          "type": "uint256"
        },
        {
          "internalType": "string",
          "name": "_subjectName",
          "type": "string"
        },
        {
          "internalType": "string",
          "name": "_publicKey",
          "type": "string"
        },
        {
          "internalType": "uint256",
          "name": "_validity",
          "type": "uint256"
        },
        {
          "internalType": "string",
          "name": "_issuer",
          "type": "string"
        },
        {
          "internalType": "string[]",
          "name": "_Multisignatures",
          "type": "string[]"
        },
        {
          "internalType": "string",
          "name": "_certificateSignature",
          "type": "string"
        },
        {
          "internalType": "bool",
          "name": "_certificateStatus",
          "type": "bool"
        }
      ],
      "name": "issueCertificate",
      "outputs": [
        {
          "internalType": "string",
          "name": "",
          "type": "string"
        },
        {
          "internalType": "uint256",
          "name": "",
          "type": "uint256"
        },
        {
          "internalType": "string",
          "name": "",
          "type": "string"
        },
        {
          "internalType": "string",
          "name": "",
          "type": "string"
        },
        {
          "internalType": "uint256",
          "name": "",
          "type": "uint256"
        }
      ],
      "payable": false,
      "stateMutability": "nonpayable",
      "type": "function"
    },
    {
      "constant": false,
      "inputs": [
        {
          "internalType": "uint256",
          "name": "_serialNumber",
          "type": "uint256"
        },
        {
          "internalType": "string",
          "name": "_issuer",
          "type": "string"
        },
        {
          "internalType": "string[]",
          "name": "_Multisignatures",
          "type": "string[]"
        },
        {
          "internalType": "string",
          "name": "_certificateSignature",
          "type": "string"
        },
        {
          "internalType": "bool",
          "name": "_certificateStatus",
          "type": "bool"
        },
        {
          "internalType": "uint256",
          "name": "_validity",
          "type": "uint256"
        }
      ],
      "name": "addcertprops",
      "outputs": [
        {
          "internalType": "string",
          "name": "",
          "type": "string"
        },
        {
          "internalType": "string[]",
          "name": "",
          "type": "string[]"
        },
        {
          "internalType": "string",
          "name": "",
          "type": "string"
        },
        {
          "internalType": "bool",
          "name": "",
          "type": "bool"
        },
        {
          "internalType": "uint256",
          "name": "",
          "type": "uint256"
        }
      ],
      "payable": false,
      "stateMutability": "nonpayable",
      "type": "function"
    },
    {
      "constant": false,
      "inputs": [
        {
          "internalType": "uint256",
          "name": "_serialNumber",
          "type": "uint256"
        }
      ],
      "name": "revokeCertificate",
      "outputs": [
        {
          "internalType": "bool",
          "name": "",
          "type": "bool"
        }
      ],
      "payable": false,
      "stateMutability": "nonpayable",
      "type": "function"
    },
    {
      "constant": true,
      "inputs": [
        {
          "internalType": "uint256",
          "name": "_serialNumber",
          "type": "uint256"
        }
      ],
      "name": "clientVerifyCert",
      "outputs": [
        {
          "internalType": "uint256",
          "name": "",
          "type": "uint256"
        }
      ],
      "payable": false,
      "stateMutability": "view",
      "type": "function"
    },
    {
      "constant": true,
      "inputs": [],
      "name": "countCertificates",
      "outputs": [
        {
          "internalType": "uint256",
          "name": "",
          "type": "uint256"
        }
      ],
      "payable": false,
      "stateMutability": "view",
      "type": "function"
    }
  ],
  "bytecode": "0x6080604052600060025534801561001557600080fd5b50336000806101000a81548173ffffffffffffffffffffffffffffffffffffffff021916908373ffffffffffffffffffffffffffffffffffffffff16021790555061127b806100656000396000f3fe608060405234801561001057600080fd5b506004361061007d5760003560e01c80633d21c1d81161005b5780633d21c1d814610104578063663b3e2214610122578063a6b33b901461015a578063d16a58661461018e5761007d565b806306f5497e1461008257806308604434146100b257806332732bf2146100e6575b600080fd5b61009c60048036036100979190810190610c81565b6101be565b6040516100a99190610ecd565b60405180910390f35b6100cc60048036036100c79190810190610caa565b6101f7565b6040516100dd959493929190610ee8565b60405180910390f35b6100ee610325565b6040516100fb9190611068565b60405180910390f35b61010c61032b565b6040516101199190611068565b60405180910390f35b61013c60048036036101379190810190610c81565b610335565b60405161015199989796959493929190610fb8565b60405180910390f35b610174600480360361016f9190810190610b2b565b610688565b604051610185959493929190610f50565b60405180910390f35b6101a860048036036101a39190810190610c81565b6107cc565b6040516101b59190611068565b60405180910390f35b6000806001600084815260200190815260200160002060080160006101000a81548160ff02191690831515021790555060009050919050565b606080606060008089600160008d815260200190815260200160002060050190805190602001906102299291906107ec565b5086600160008d815260200190815260200160002060080160006101000a81548160ff02191690831515021790555088600160008d8152602001908152602001600020600601908051906020019061028292919061086c565b5087600160008d815260200190815260200160002060070190805190602001906102ad9291906107ec565b5085600160008d8152602001908152602001600020600401819055507fd30afaf9ca0dcaeff08168b40bad1d211c3d3be3d77b73f889a8e693597b9a738a8a8a8a8a604051610300959493929190610ee8565b60405180910390a1898989898994509450945094509450965096509650965096915050565b60025481565b6000600254905090565b6001602052806000526040600020600091509050806000018054600181600116156101000203166002900480601f0160208091040260200160405190810160405280929190818152602001828054600181600116156101000203166002900480156103e15780601f106103b6576101008083540402835291602001916103e1565b820191906000526020600020905b8154815290600101906020018083116103c457829003601f168201915b505050505090806001015490806002018054600181600116156101000203166002900480601f0160208091040260200160405190810160405280929190818152602001828054600181600116156101000203166002900480156104855780601f1061045a57610100808354040283529160200191610485565b820191906000526020600020905b81548152906001019060200180831161046857829003601f168201915b505050505090806003018054600181600116156101000203166002900480601f0160208091040260200160405190810160405280929190818152602001828054600181600116156101000203166002900480156105235780601f106104f857610100808354040283529160200191610523565b820191906000526020600020905b81548152906001019060200180831161050657829003601f168201915b505050505090806004015490806005018054600181600116156101000203166002900480601f0160208091040260200160405190810160405280929190818152602001828054600181600116156101000203166002900480156105c75780601f1061059c576101008083540402835291602001916105c7565b820191906000526020600020905b8154815290600101906020018083116105aa57829003601f168201915b505050505090806007018054600181600116156101000203166002900480601f0160208091040260200160405190810160405280929190818152602001828054600181600116156101000203166002900480156106655780601f1061063a57610100808354040283529160200191610665565b820191906000526020600020905b81548152906001019060200180831161064857829003601f168201915b5050505050908060080160009054906101000a900460ff16908060090154905089565b6060600060608060006002600081548092919060010191905055508c600160008f8152602001908152602001600020600101819055508d600160008f815260200190815260200160002060000190805190602001906106e89291906107ec565b508b600160008f815260200190815260200160002060020190805190602001906107139291906107ec565b508a600160008f8152602001908152602001600020600301908051906020019061073e9291906107ec565b5043600160008f8152602001908152602001600020600901819055506107688d8a8a8a8a8f6101f7565b50505050507f274c67cb75924a5c724cf4714efb201dc1c4690f51ef2c81495bd304fe26e7018e8e8e8e436040516107a4959493929190610f50565b60405180910390a18d8d8d8d4394509450945094509450995099509950995099945050505050565b600060016000838152602001908152602001600020600901549050919050565b828054600181600116156101000203166002900490600052602060002090601f016020900481019282601f1061082d57805160ff191683800117855561085b565b8280016001018555821561085b579182015b8281111561085a57825182559160200191906001019061083f565b5b50905061086891906108cc565b5090565b8280548282559060005260206000209081019282156108bb579160200282015b828111156108ba5782518290805190602001906108aa9291906108f1565b509160200191906001019061088c565b5b5090506108c89190610971565b5090565b6108ee91905b808211156108ea5760008160009055506001016108d2565b5090565b90565b828054600181600116156101000203166002900490600052602060002090601f016020900481019282601f1061093257805160ff1916838001178555610960565b82800160010185558215610960579182015b8281111561095f578251825591602001919060010190610944565b5b50905061096d91906108cc565b5090565b61099a91905b80821115610996576000818161098d919061099d565b50600101610977565b5090565b90565b50805460018160011615610100020316600290046000825580601f106109c357506109e2565b601f0160209004906000526020600020908101906109e191906108cc565b5b50565b600082601f8301126109f657600080fd5b8135610a09610a04826110b0565b611083565b9150818183526020840193506020810190508360005b83811015610a4f5781358601610a358882610a6e565b845260208401935060208301925050600181019050610a1f565b5050505092915050565b600081359050610a688161120a565b92915050565b600082601f830112610a7f57600080fd5b8135610a92610a8d826110d8565b611083565b91508082526020830160208301858383011115610aae57600080fd5b610ab98382846111b7565b50505092915050565b600082601f830112610ad357600080fd5b8135610ae6610ae182611104565b611083565b91508082526020830160208301858383011115610b0257600080fd5b610b0d8382846111b7565b50505092915050565b600081359050610b2581611221565b92915050565b60008060008060008060008060006101208a8c031215610b4a57600080fd5b60008a013567ffffffffffffffff811115610b6457600080fd5b610b708c828d01610ac2565b9950506020610b818c828d01610b16565b98505060408a013567ffffffffffffffff811115610b9e57600080fd5b610baa8c828d01610ac2565b97505060608a013567ffffffffffffffff811115610bc757600080fd5b610bd38c828d01610ac2565b9650506080610be48c828d01610b16565b95505060a08a013567ffffffffffffffff811115610c0157600080fd5b610c0d8c828d01610ac2565b94505060c08a013567ffffffffffffffff811115610c2a57600080fd5b610c368c828d016109e5565b93505060e08a013567ffffffffffffffff811115610c5357600080fd5b610c5f8c828d01610ac2565b925050610100610c718c828d01610a59565b9150509295985092959850929598565b600060208284031215610c9357600080fd5b6000610ca184828501610b16565b91505092915050565b60008060008060008060c08789031215610cc357600080fd5b6000610cd189828a01610b16565b965050602087013567ffffffffffffffff811115610cee57600080fd5b610cfa89828a01610ac2565b955050604087013567ffffffffffffffff811115610d1757600080fd5b610d2389828a016109e5565b945050606087013567ffffffffffffffff811115610d4057600080fd5b610d4c89828a01610ac2565b9350506080610d5d89828a01610a59565b92505060a0610d6e89828a01610b16565b9150509295509295509295565b6000610d878383610e4c565b905092915050565b6000610d9a82611140565b610da4818561116e565b935083602082028501610db685611130565b8060005b85811015610df25784840389528151610dd38582610d7b565b9450610dde83611161565b925060208a01995050600181019050610dba565b50829750879550505050505092915050565b610e0d816111a1565b82525050565b6000610e1e82611156565b610e288185611190565b9350610e388185602086016111c6565b610e41816111f9565b840191505092915050565b6000610e578261114b565b610e61818561117f565b9350610e718185602086016111c6565b610e7a816111f9565b840191505092915050565b6000610e908261114b565b610e9a8185611190565b9350610eaa8185602086016111c6565b610eb3816111f9565b840191505092915050565b610ec7816111ad565b82525050565b6000602082019050610ee26000830184610e04565b92915050565b600060a0820190508181036000830152610f028188610e13565b90508181036020830152610f168187610d8f565b90508181036040830152610f2a8186610e13565b9050610f396060830185610e04565b610f466080830184610ebe565b9695505050505050565b600060a0820190508181036000830152610f6a8188610e13565b9050610f796020830187610ebe565b8181036040830152610f8b8186610e13565b90508181036060830152610f9f8185610e13565b9050610fae6080830184610ebe565b9695505050505050565b6000610120820190508181036000830152610fd3818c610e85565b9050610fe2602083018b610ebe565b8181036040830152610ff4818a610e85565b905081810360608301526110088189610e85565b90506110176080830188610ebe565b81810360a08301526110298187610e85565b905081810360c083015261103d8186610e85565b905061104c60e0830185610e04565b61105a610100830184610ebe565b9a9950505050505050505050565b600060208201905061107d6000830184610ebe565b92915050565b6000604051905081810181811067ffffffffffffffff821117156110a657600080fd5b8060405250919050565b600067ffffffffffffffff8211156110c757600080fd5b602082029050602081019050919050565b600067ffffffffffffffff8211156110ef57600080fd5b601f19601f8301169050602081019050919050565b600067ffffffffffffffff82111561111b57600080fd5b601f19601f8301169050602081019050919050565b6000819050602082019050919050565b600081519050919050565b600081519050919050565b600081519050919050565b6000602082019050919050565b600082825260208201905092915050565b600082825260208201905092915050565b600082825260208201905092915050565b60008115159050919050565b6000819050919050565b82818337600083830152505050565b60005b838110156111e45780820151818401526020810190506111c9565b838111156111f3576000848401525b50505050565b6000601f19601f8301169050919050565b611213816111a1565b811461121e57600080fd5b50565b61122a816111ad565b811461123557600080fd5b5056fea365627a7a723158206a8a921547d17d7903d935dc289e29ffc9b1a38708c90c7bdde8999921841a8c6c6578706572696d656e74616cf564736f6c63430005100040",
  "source": "// SPDX-License-Identifier: GPL-3.0\r\npragma solidity ^0.5.16;\r\npragma experimental ABIEncoderV2;\r\n\r\ncontract Bbpki {\r\n\r\n// state variables\r\n\r\naddress owner;\r\nmapping (uint => certificate) public certificates;\r\nuint256 public noOfcertificates = 0;\r\n\r\n// constructor\r\nconstructor () public {\r\nowner = msg.sender;\r\n}\r\n\r\n // enumerations (predetermined values)\r\n    enum certificateStatus {active, revoked, expired}\r\n\r\n// access restrictions\r\nmodifier onlyOwner (){\r\nrequire (owner == msg.sender);\r\n    _;\r\n}\r\n\r\n\r\n\r\n// structures\r\n\r\n    struct certificate {\r\n        string version;\r\n        uint256 serialNumber;\r\n        string subjectName;\r\n        string publicKey;\r\n        uint256 validity;\r\n        string issuer;\r\n        string[] Multisignatures;\r\n        string  certificateSignature; \r\n        bool  certificateStatus;\r\n        uint256 blockNumber;\r\n    }\r\n\r\n   \r\n\r\n    // events\r\n    // certificate authority registeration event\r\n    event header (uint notBefore, uint notAfter, uint blockNumber);\r\n\r\n    // certificate signing event\r\n    event certificateSigned(\r\n        string version,\r\n        uint256 serialNumber,\r\n        string subjectName,\r\n        string publicKey,\r\n        uint256 blockNumber\r\n      );\r\n      \r\n      event addcertpropss(\r\n        \r\n        string issuer,\r\n        string[] Multisignatures,\r\n        string  certificateSignature, \r\n        bool  certificateStatus,\r\n        uint256 validity\r\n      );\r\n    \r\n\r\n\r\n    function issueCertificate(\r\n        string memory _version,\r\n        uint256 _serialNumber,\r\n        string memory _subjectName,\r\n        string memory _publicKey,\r\n        uint256 _validity,\r\n        string memory _issuer,\r\n        string[] memory _Multisignatures,\r\n        string memory  _certificateSignature, \r\n        bool  _certificateStatus\r\n    ) public returns (\r\n        string memory,\r\n        uint256 ,\r\n        string memory,\r\n        string memory,\r\n        uint256\r\n      \r\n     ) {\r\n    noOfcertificates++;\r\ncertificates[_serialNumber].serialNumber = _serialNumber;\r\ncertificates[_serialNumber].version = _version;\r\ncertificates[_serialNumber].subjectName = _subjectName;\r\ncertificates[_serialNumber].publicKey = _publicKey;\r\ncertificates[_serialNumber].blockNumber = block.number;\r\n\r\naddcertprops( _serialNumber, _issuer, _Multisignatures, _certificateSignature, _certificateStatus, _validity); \r\n\r\n\r\n  //  certificates[noOfcertificates] = certificate(serialNumber, subjectName, organisation, issuer, expiry, noOfSignatures,defaultStatus,signatures);\r\n     emit certificateSigned(\r\n        _version,\r\n        _serialNumber,\r\n        _subjectName,\r\n        _publicKey,\r\n        block.number);\r\n     return ( \r\n         _version,\r\n        _serialNumber,\r\n        _subjectName,\r\n        _publicKey,\r\n        block.number\r\n        );\r\n    }\r\n\r\n    function addcertprops(\r\n        uint256 _serialNumber,\r\n        string memory _issuer,\r\n        string[] memory _Multisignatures,\r\n        string memory  _certificateSignature, \r\n        bool  _certificateStatus,\r\n        uint256 _validity\r\n    ) public returns (\r\n        string memory,\r\n        string[] memory,\r\n        string memory, \r\n        bool,\r\n        uint256\r\n      \r\n     ) {\r\ncertificates[_serialNumber].issuer = _issuer;\r\ncertificates[_serialNumber].certificateStatus = _certificateStatus;\r\ncertificates[_serialNumber].Multisignatures = _Multisignatures;\r\ncertificates[_serialNumber].certificateSignature = _certificateSignature;\r\ncertificates[_serialNumber].validity = _validity;\r\n\r\n\r\n\r\n  //  certificates[noOfcertificates] = certificate(serialNumber, subjectName, organisation, issuer, expiry, noOfSignatures,defaultStatus,signatures);\r\n     emit addcertpropss(\r\n        _issuer,\r\n        _Multisignatures,\r\n        _certificateSignature, \r\n        _certificateStatus,\r\n        _validity\r\n        );\r\n     return ( _issuer ,_Multisignatures, _certificateSignature,  _certificateStatus, _validity);\r\n    }\r\n\r\n\r\n    function revokeCertificate (uint256 _serialNumber) public returns (bool){\r\n     certificates[_serialNumber].certificateStatus = false;\r\n    return false;\r\n    }\r\n    \r\n    function clientVerifyCert(uint _serialNumber) public view returns (uint){\r\n        return certificates[_serialNumber].blockNumber;\r\n    }\r\n\r\n    function countCertificates() view public returns (uint){ //Count how many users create certificates\r\n      return noOfcertificates;\r\n    }\r\n    \r\n    \r\n}\r\n",
  "sourcePath": "C:/Users/USER/Desktop/BB-PKI-CERTIFICATE-MANAGEMENT/contracts/BBPKI.sol",
  "compiler": {
    "name": "solc",
    "version": "0.5.16+commit.9c3226ce.Emscripten.clang"
  },
  "schemaVersion": "3.3.4",
  "updatedAt": "2021-04-10T08:20:15.116Z",
  "networkType": "ethereum",
  "devdoc": {
    "methods": {}
  },
  "userdoc": {
    "methods": {}
  }
}