{
  "contractName": "BlockSSL",
  "abi": [
    {
      "anonymous": false,
      "inputs": [
        {
          "indexed": false,
          "internalType": "address",
          "name": "creator",
          "type": "address"
        },
        {
          "indexed": false,
          "internalType": "string",
          "name": "domain",
          "type": "string"
        },
        {
          "indexed": false,
          "internalType": "string",
          "name": "certificateHash",
          "type": "string"
        },
        {
          "indexed": false,
          "internalType": "uint256",
          "name": "serialNumber",
          "type": "uint256"
        },
        {
          "indexed": false,
          "internalType": "uint256",
          "name": "expiry",
          "type": "uint256"
        },
        {
          "indexed": false,
          "internalType": "string",
          "name": "certDownloadLink",
          "type": "string"
        }
      ],
      "name": "certificateInfoAdded",
      "type": "event"
    },
    {
      "constant": true,
      "inputs": [
        {
          "internalType": "uint256",
          "name": "",
          "type": "uint256"
        }
      ],
      "name": "certAdd",
      "outputs": [
        {
          "internalType": "address",
          "name": "",
          "type": "address"
        }
      ],
      "payable": false,
      "stateMutability": "view",
      "type": "function"
    },
    {
      "constant": false,
      "inputs": [
        {
          "internalType": "string",
          "name": "_domain",
          "type": "string"
        },
        {
          "internalType": "string",
          "name": "_certificateHash",
          "type": "string"
        },
        {
          "internalType": "uint256",
          "name": "_expiry",
          "type": "uint256"
        },
        {
          "internalType": "string",
          "name": "_certDownloadLink",
          "type": "string"
        }
      ],
      "name": "setCertificate",
      "outputs": [
        {
          "internalType": "string",
          "name": "",
          "type": "string"
        }
      ],
      "payable": false,
      "stateMutability": "nonpayable",
      "type": "function"
    },
    {
      "constant": true,
      "inputs": [],
      "name": "getCertificatesInfo",
      "outputs": [
        {
          "internalType": "address[]",
          "name": "",
          "type": "address[]"
        }
      ],
      "payable": false,
      "stateMutability": "view",
      "type": "function"
    },
    {
      "constant": true,
      "inputs": [],
      "name": "countCertificates",
      "outputs": [
        {
          "internalType": "uint256",
          "name": "",
          "type": "uint256"
        }
      ],
      "payable": false,
      "stateMutability": "view",
      "type": "function"
    }
  ],
  "bytecode": "0x6080604052600060025534801561001557600080fd5b506106b2806100256000396000f3fe608060405234801561001057600080fd5b506004361061004c5760003560e01c806312b36d42146100515780633d21c1d8146100bf578063c1cbd64b146100dd578063e65717ca1461013c575b600080fd5b61007d6004803603602081101561006757600080fd5b81019080803590602001909291905050506103a8565b604051808273ffffffffffffffffffffffffffffffffffffffff1673ffffffffffffffffffffffffffffffffffffffff16815260200191505060405180910390f35b6100c76103e4565b6040518082815260200191505060405180910390f35b6100e56103f1565b6040518080602001828103825283818151815260200191508051906020019060200280838360005b8381101561012857808201518184015260208101905061010d565b505050509050019250505060405180910390f35b61032d6004803603608081101561015257600080fd5b810190808035906020019064010000000081111561016f57600080fd5b82018360208201111561018157600080fd5b803590602001918460018302840111640100000000831117156101a357600080fd5b91908080601f016020809104026020016040519081016040528093929190818152602001838380828437600081840152601f19601f8201169050808301925050505050505091929192908035906020019064010000000081111561020657600080fd5b82018360208201111561021857600080fd5b8035906020019184600183028401116401000000008311171561023a57600080fd5b91908080601f016020809104026020016040519081016040528093929190818152602001838380828437600081840152601f19601f82011690508083019250505050505050919291929080359060200190929190803590602001906401000000008111156102a757600080fd5b8201836020820111156102b957600080fd5b803590602001918460018302840111640100000000831117156102db57600080fd5b91908080601f016020809104026020016040519081016040528093929190818152602001838380828437600081840152601f19601f82011690508083019250505050505050919291929050505061047f565b6040518080602001828103825283818151815260200191508051906020019080838360005b8381101561036d578082015181840152602081019050610352565b50505050905090810190601f16801561039a5780820380516001836020036101000a031916815260200191505b509250505060405180910390f35b600181815481106103b557fe5b906000526020600020016000915054906101000a900473ffffffffffffffffffffffffffffffffffffffff1681565b6000600180549050905090565b6060600180548060200260200160405190810160405280929190818152602001828054801561047557602002820191906000526020600020905b8160009054906101000a900473ffffffffffffffffffffffffffffffffffffffff1673ffffffffffffffffffffffffffffffffffffffff168152602001906001019080831161042b575b5050505050905090565b60607f0ba9e60637e669d4d4f90629d2a20d5860bb3db92e51b615a97d1a8c7c6daefc3386866002548787604051808773ffffffffffffffffffffffffffffffffffffffff1673ffffffffffffffffffffffffffffffffffffffff168152602001806020018060200186815260200185815260200180602001848103845289818151815260200191508051906020019080838360005b83811015610530578082015181840152602081019050610515565b50505050905090810190601f16801561055d5780820380516001836020036101000a031916815260200191505b50848103835288818151815260200191508051906020019080838360005b8381101561059657808201518184015260208101905061057b565b50505050905090810190601f1680156105c35780820380516001836020036101000a031916815260200191505b50848103825285818151815260200191508051906020019080838360005b838110156105fc5780820151818401526020810190506105e1565b50505050905090810190601f1680156106295780820380516001836020036101000a031916815260200191505b50995050505050505050505060405180910390a16040518060400160405280600c81526020017f75736d616e64616e626162610000000000000000000000000000000000000000815250905094935050505056fea265627a7a723158202444a4f626138ca6b2605bbb5929854271d99c22e3e231abb9909c9f8cd9399364736f6c63430005100032",
  "source": "pragma solidity >=0.4.22 <0.9.0;\r\n\r\ncontract BlockSSL {\r\nmapping (uint => certificateInfo) certificates;\r\n    address[] public certAdd;\r\n    uint serialNumber = 0;\r\n    struct certificateInfo {\r\n        address creator;\r\n        string domain;\r\n        string certificateHash;\r\n        uint serialNumber;\r\n        uint expiry;\r\n        string certDownloadLink;\r\n    }\r\n\r\n    event certificateInfoAdded(address creator, string domain, string certificateHash, uint serialNumber, uint expiry, string certDownloadLink);\r\n\r\n    function setCertificate(string memory _domain, string memory _certificateHash, uint _expiry, string memory _certDownloadLink) public returns (string memory) {\r\n        \r\n      \r\n       emit certificateInfoAdded(msg.sender, _domain, _certificateHash, serialNumber, _expiry, _certDownloadLink);\r\n       return \"usmandanbaba\";\r\n    }\r\n\r\n    function getCertificatesInfo() view public returns (address[] memory) { //Get all the info that has been added\r\n        return certAdd;\r\n    }\r\n\r\n    function countCertificates() view public returns (uint){ //Count how many users create certificates\r\n      return certAdd.length;\r\n    }\r\n}\r\n",
  "sourcePath": "C:/Users/USER/Desktop/BB-PKI-CERTIFICATE-MANAGEMENT/contracts/BBPKI.sol",
  "compiler": {
    "name": "solc",
    "version": "0.5.16+commit.9c3226ce.Emscripten.clang"
  },
  "schemaVersion": "3.3.4",
  "updatedAt": "2021-03-20T22:09:58.109Z",
  "networkType": "ethereum",
  "devdoc": {
    "methods": {}
  },
  "userdoc": {
    "methods": {}
  }
}